{
  "contractName": "Marketplace",
  "abi": [
    {
      "inputs": [],
      "stateMutability": "nonpayable",
      "type": "constructor"
    },
    {
      "anonymous": false,
      "inputs": [
        {
          "indexed": true,
          "internalType": "uint256",
          "name": "marketItemId",
          "type": "uint256"
        },
        {
          "indexed": true,
          "internalType": "address",
          "name": "nftContract",
          "type": "address"
        },
        {
          "indexed": true,
          "internalType": "uint256",
          "name": "tokenId",
          "type": "uint256"
        },
        {
          "indexed": false,
          "internalType": "address",
          "name": "creator",
          "type": "address"
        },
        {
          "indexed": false,
          "internalType": "address",
          "name": "seller",
          "type": "address"
        },
        {
          "indexed": false,
          "internalType": "address",
          "name": "owner",
          "type": "address"
        },
        {
          "indexed": false,
          "internalType": "uint256",
          "name": "price",
          "type": "uint256"
        },
        {
          "indexed": false,
          "internalType": "bool",
          "name": "sold",
          "type": "bool"
        },
        {
          "indexed": false,
          "internalType": "bool",
          "name": "canceled",
          "type": "bool"
        }
      ],
      "name": "MarketItemCreated",
      "type": "event"
    },
    {
      "inputs": [],
      "name": "getListingFee",
      "outputs": [
        {
          "internalType": "uint256",
          "name": "",
          "type": "uint256"
        }
      ],
      "stateMutability": "view",
      "type": "function",
      "constant": true
    },
    {
      "inputs": [
        {
          "internalType": "address",
          "name": "nftContractAddress",
          "type": "address"
        },
        {
          "internalType": "uint256",
          "name": "tokenId",
          "type": "uint256"
        },
        {
          "internalType": "uint256",
          "name": "price",
          "type": "uint256"
        }
      ],
      "name": "createMarketItem",
      "outputs": [
        {
          "internalType": "uint256",
          "name": "",
          "type": "uint256"
        }
      ],
      "stateMutability": "payable",
      "type": "function",
      "payable": true
    },
    {
      "inputs": [
        {
          "internalType": "address",
          "name": "nftContractAddress",
          "type": "address"
        },
        {
          "internalType": "uint256",
          "name": "marketItemId",
          "type": "uint256"
        }
      ],
      "name": "cancelMarketItem",
      "outputs": [],
      "stateMutability": "payable",
      "type": "function",
      "payable": true
    },
    {
      "inputs": [
        {
          "internalType": "uint256",
          "name": "tokenId",
          "type": "uint256"
        }
      ],
      "name": "getLatestMarketItemByTokenId",
      "outputs": [
        {
          "components": [
            {
              "internalType": "uint256",
              "name": "marketItemId",
              "type": "uint256"
            },
            {
              "internalType": "address",
              "name": "nftContractAddress",
              "type": "address"
            },
            {
              "internalType": "uint256",
              "name": "tokenId",
              "type": "uint256"
            },
            {
              "internalType": "address payable",
              "name": "creator",
              "type": "address"
            },
            {
              "internalType": "address payable",
              "name": "seller",
              "type": "address"
            },
            {
              "internalType": "address payable",
              "name": "owner",
              "type": "address"
            },
            {
              "internalType": "uint256",
              "name": "price",
              "type": "uint256"
            },
            {
              "internalType": "bool",
              "name": "sold",
              "type": "bool"
            },
            {
              "internalType": "bool",
              "name": "canceled",
              "type": "bool"
            }
          ],
          "internalType": "struct Marketplace.MarketItem",
          "name": "",
          "type": "tuple"
        },
        {
          "internalType": "bool",
          "name": "",
          "type": "bool"
        }
      ],
      "stateMutability": "view",
      "type": "function",
      "constant": true
    },
    {
      "inputs": [
        {
          "internalType": "address",
          "name": "nftContractAddress",
          "type": "address"
        },
        {
          "internalType": "uint256",
          "name": "marketItemId",
          "type": "uint256"
        }
      ],
      "name": "createMarketSale",
      "outputs": [],
      "stateMutability": "payable",
      "type": "function",
      "payable": true
    },
    {
      "inputs": [],
      "name": "fetchAvailableMarketItems",
      "outputs": [
        {
          "components": [
            {
              "internalType": "uint256",
              "name": "marketItemId",
              "type": "uint256"
            },
            {
              "internalType": "address",
              "name": "nftContractAddress",
              "type": "address"
            },
            {
              "internalType": "uint256",
              "name": "tokenId",
              "type": "uint256"
            },
            {
              "internalType": "address payable",
              "name": "creator",
              "type": "address"
            },
            {
              "internalType": "address payable",
              "name": "seller",
              "type": "address"
            },
            {
              "internalType": "address payable",
              "name": "owner",
              "type": "address"
            },
            {
              "internalType": "uint256",
              "name": "price",
              "type": "uint256"
            },
            {
              "internalType": "bool",
              "name": "sold",
              "type": "bool"
            },
            {
              "internalType": "bool",
              "name": "canceled",
              "type": "bool"
            }
          ],
          "internalType": "struct Marketplace.MarketItem[]",
          "name": "",
          "type": "tuple[]"
        }
      ],
      "stateMutability": "view",
      "type": "function",
      "constant": true
    },
    {
      "inputs": [],
      "name": "fetchSellingMarketItems",
      "outputs": [
        {
          "components": [
            {
              "internalType": "uint256",
              "name": "marketItemId",
              "type": "uint256"
            },
            {
              "internalType": "address",
              "name": "nftContractAddress",
              "type": "address"
            },
            {
              "internalType": "uint256",
              "name": "tokenId",
              "type": "uint256"
            },
            {
              "internalType": "address payable",
              "name": "creator",
              "type": "address"
            },
            {
              "internalType": "address payable",
              "name": "seller",
              "type": "address"
            },
            {
              "internalType": "address payable",
              "name": "owner",
              "type": "address"
            },
            {
              "internalType": "uint256",
              "name": "price",
              "type": "uint256"
            },
            {
              "internalType": "bool",
              "name": "sold",
              "type": "bool"
            },
            {
              "internalType": "bool",
              "name": "canceled",
              "type": "bool"
            }
          ],
          "internalType": "struct Marketplace.MarketItem[]",
          "name": "",
          "type": "tuple[]"
        }
      ],
      "stateMutability": "view",
      "type": "function",
      "constant": true
    },
    {
      "inputs": [],
      "name": "fetchOwnedMarketItems",
      "outputs": [
        {
          "components": [
            {
              "internalType": "uint256",
              "name": "marketItemId",
              "type": "uint256"
            },
            {
              "internalType": "address",
              "name": "nftContractAddress",
              "type": "address"
            },
            {
              "internalType": "uint256",
              "name": "tokenId",
              "type": "uint256"
            },
            {
              "internalType": "address payable",
              "name": "creator",
              "type": "address"
            },
            {
              "internalType": "address payable",
              "name": "seller",
              "type": "address"
            },
            {
              "internalType": "address payable",
              "name": "owner",
              "type": "address"
            },
            {
              "internalType": "uint256",
              "name": "price",
              "type": "uint256"
            },
            {
              "internalType": "bool",
              "name": "sold",
              "type": "bool"
            },
            {
              "internalType": "bool",
              "name": "canceled",
              "type": "bool"
            }
          ],
          "internalType": "struct Marketplace.MarketItem[]",
          "name": "",
          "type": "tuple[]"
        }
      ],
      "stateMutability": "view",
      "type": "function",
      "constant": true
    },
    {
      "inputs": [
        {
          "internalType": "string",
          "name": "_addressProperty",
          "type": "string"
        }
      ],
      "name": "fetchMarketItemsByAddressProperty",
      "outputs": [
        {
          "components": [
            {
              "internalType": "uint256",
              "name": "marketItemId",
              "type": "uint256"
            },
            {
              "internalType": "address",
              "name": "nftContractAddress",
              "type": "address"
            },
            {
              "internalType": "uint256",
              "name": "tokenId",
              "type": "uint256"
            },
            {
              "internalType": "address payable",
              "name": "creator",
              "type": "address"
            },
            {
              "internalType": "address payable",
              "name": "seller",
              "type": "address"
            },
            {
              "internalType": "address payable",
              "name": "owner",
              "type": "address"
            },
            {
              "internalType": "uint256",
              "name": "price",
              "type": "uint256"
            },
            {
              "internalType": "bool",
              "name": "sold",
              "type": "bool"
            },
            {
              "internalType": "bool",
              "name": "canceled",
              "type": "bool"
            }
          ],
          "internalType": "struct Marketplace.MarketItem[]",
          "name": "",
          "type": "tuple[]"
        }
      ],
      "stateMutability": "view",
      "type": "function",
      "constant": true
    }
  ],
  "bytecode": "0x6080604052669fdf42f6e4800060055534801561001b57600080fd5b50600160005560048054600160a060020a031916331790556115bb806100426000396000f3fe6080604052600436106100a3576000357c0100000000000000000000000000000000000000000000000000000000900480636f9b4920116100765780636f9b49201461011e578063b3e3c42f1461014c578063b8fe6abe14610161578063c23b139e14610176578063cd90fdf41461018957600080fd5b80630203c823146100a85780630e01c969146100d35780634cf2a069146100e857806358eb2df5146100fd575b600080fd5b3480156100b457600080fd5b506100bd6101a9565b6040516100ca9190611234565b60405180910390f35b3480156100df57600080fd5b506100bd6101ee565b3480156100f457600080fd5b506100bd61038f565b61011061010b36600461128f565b6103bd565b6040519081526020016100ca565b34801561012a57600080fd5b5061013e6101393660046112c4565b6107c1565b6040516100ca9291906112dd565b61015f61015a3660046112fc565b6108ad565b005b34801561016d57600080fd5b50600554610110565b61015f6101843660046112fc565b610a5e565b34801561019557600080fd5b506100bd6101a4366004611357565b610c49565b60606101e96040518060400160405280600581526020017f6f776e6572000000000000000000000000000000000000000000000000000000815250610c49565b905090565b606060006101fb60015490565b9050600061020860025490565b9050600061021560035490565b90506000816102248486611437565b61022e9190611437565b905060008167ffffffffffffffff81111561024b5761024b611328565b60405190808252806020026020018201604052801561028457816020015b610271611164565b8152602001906001900390816102695790505b5090506000805b868110156103835760006006816102a384600161144a565b81526020808201929092526040908101600020815161012081018352815481526001820154600160a060020a0390811694820194909452600282015492810192909252600381015483166060830152600481015483166080830152600581015490921660a08201819052600683015460c083015260079092015460ff808216151560e084015261010091829004161515908201529150156103445750610371565b808484815181106103575761035761145d565b602090810291909101015261036d60018461144a565b9250505b8061037b8161148c565b91505061028b565b50909695505050505050565b60606101e9604051806040016040528060068152602001600080516020611566833981519152815250610c49565b60006103c7610fd7565b6000821161041f5760405160e560020a62461bcd02815260206004820152600360248201527f617364000000000000000000000000000000000000000000000000000000000060448201526064015b60405180910390fd5b60055434146104735760405160e560020a62461bcd02815260206004820152600660248201527f71776571776500000000000000000000000000000000000000000000000000006044820152606401610416565b610481600180546001019055565b600061048c60015490565b6040517f867d339700000000000000000000000000000000000000000000000000000000815260048101869052909150600090600160a060020a0387169063867d339790602401602060405180830381865afa1580156104f0573d6000803e3d6000fd5b505050506040513d601f19601f8201168201806040525081019061051491906114a5565b905060405180610120016040528083815260200187600160a060020a0316815260200186815260200182600160a060020a0316815260200133600160a060020a031681526020016000600160a060020a0316815260200185815260200160001515815260200160001515815250600660008481526020019081526020016000206000820151816000015560208201518160010160006101000a815481600160a060020a030219169083600160a060020a031602179055506040820151816002015560608201518160030160006101000a815481600160a060020a030219169083600160a060020a0316021790555060808201518160040160006101000a815481600160a060020a030219169083600160a060020a0316021790555060a08201518160050160006101000a815481600160a060020a030219169083600160a060020a0316021790555060c0820151816006015560e08201518160070160006101000a81548160ff0219169083151502179055506101008201518160070160016101000a81548160ff02191690831515021790555090505085600160a060020a03166323b872dd3330886040518463ffffffff167c010000000000000000000000000000000000000000000000000000000002815260040161071593929190600160a060020a039384168152919092166020820152604081019190915260600190565b600060405180830381600087803b15801561072f57600080fd5b505af1158015610743573d6000803e3d6000fd5b505060408051600160a060020a0385811682523360208301526000828401819052606083018a90526080830181905260a08301529151899450918a16925085917fa3b15201f5409f14cce6233dc60972278c313ff3ddbdee57ff092c0e953135269181900360c00190a45090506107ba6001600055565b9392505050565b6107c9611164565b6000806107d560015490565b9050805b801561089957600081815260066020818152604092839020835161012081018552815481526001820154600160a060020a03908116938201939093526002820154948101859052600382015483166060820152600482015483166080820152600582015490921660a08301529182015460c082015260079091015460ff808216151560e0840152610100918290041615159082015290861461087b5750610887565b95600195509350505050565b80610891816114c2565b9150506107d9565b506108a2611164565b946000945092505050565b6108b5610fd7565b600081815260066020526040902060020154806109175760405160e560020a62461bcd02815260206004820152601860248201527f4d61726b6574206974656d2068617320746f20657869737400000000000000006044820152606401610416565b600082815260066020526040902060040154600160a060020a031633146109835760405160e560020a62461bcd02815260206004820152601660248201527f596f7520617265206e6f74207468652073656c6c6572000000000000000000006044820152606401610416565b6040517f23b872dd00000000000000000000000000000000000000000000000000000000815230600482015233602482015260448101829052600160a060020a038416906323b872dd90606401600060405180830381600087803b1580156109ea57600080fd5b505af11580156109fe573d6000803e3d6000fd5b505050600083815260066020526040902060058101805473ffffffffffffffffffffffffffffffffffffffff191633179055600701805461ff00191661010017905550610a4f600380546001019055565b50610a5a6001600055565b5050565b610a66610fd7565b600081815260066020819052604090912090810154600290910154348214610af95760405160e560020a62461bcd02815260206004820152603360248201527f506c65617365207375626d6974207468652061736b696e67207072696365206960448201527f6e206f7264657220746f20636f6e74696e7565000000000000000000000000006064820152608401610416565b60008381526006602052604080822060058101805473ffffffffffffffffffffffffffffffffffffffff19163317905560078101805460ff19166001179055600401549051600160a060020a0391909116913480156108fc02929091818181858888f19350505050158015610b72573d6000803e3d6000fd5b506040517f23b872dd00000000000000000000000000000000000000000000000000000000815230600482015233602482015260448101829052600160a060020a038516906323b872dd90606401600060405180830381600087803b158015610bda57600080fd5b505af1158015610bee573d6000803e3d6000fd5b50505050610c00600280546001019055565b600454600554604051600160a060020a039092169181156108fc0291906000818181858888f19350505050158015610c3c573d6000803e3d6000fd5b505050610a5a6001600055565b6060610c7882604051806040016040528060068152602001600080516020611566833981519152815250611033565b80610cbd5750610cbd826040518060400160405280600581526020017f6f776e6572000000000000000000000000000000000000000000000000000000815250611033565b610cdc5760405160e560020a62461bcd028152600401610416906114d9565b6000610ce760015490565b905060008060005b83811015610de2576000600681610d0784600161144a565b815260208082019290925260409081016000908120825161012081018452815481526001820154600160a060020a0390811695820195909552600282015493810193909352600381015484166060840152600481015484166080840152600581015490931660a0830152600683015460c0830152600783015460ff808216151560e08501526101009182900416151590830152919250610da7908961108d565b9050600160a060020a0381163314610dc0575050610dd0565b610dcb60018661144a565b945050505b80610dda8161148c565b915050610cef565b5060008267ffffffffffffffff811115610dfe57610dfe611328565b604051908082528060200260200182016040528015610e3757816020015b610e24611164565b815260200190600190039081610e1c5790505b50905060005b84811015610fcd576000600681610e5584600161144a565b815260208082019290925260409081016000908120825161012081018452815481526001820154600160a060020a0390811695820195909552600282015493810193909352600381015484166060840152600481015484166080840152600581015490931660a0830152600683015460c0830152600783015460ff808216151560e08501526101009182900416151590830152919250610ef5908a61108d565b9050600160a060020a0381163314610f0e575050610fbb565b6040805161012081018252835481526001840154600160a060020a039081166020830152600285015492820192909252600384015482166060820152600484015482166080820152600584015490911660a0820152600683015460c0820152600783015460ff808216151560e084015261010091829004161515908201528451859087908110610fa057610fa061145d565b6020908102919091010152610fb660018661144a565b945050505b80610fc58161148c565b915050610e3d565b5095945050505050565b60026000540361102c5760405160e560020a62461bcd02815260206004820152601f60248201527f5265656e7472616e637947756172643a207265656e7472616e742063616c6c006044820152606401610416565b6002600055565b6000816040516020016110469190611536565b604051602081830303815290604052805190602001208360405160200161106d9190611536565b604051602081830303815290604052805190602001201490505b92915050565b60006110bc82604051806040016040528060068152602001600080516020611566833981519152815250611033565b806111015750611101826040518060400160405280600581526020017f6f776e6572000000000000000000000000000000000000000000000000000000815250611033565b6111205760405160e560020a62461bcd028152600401610416906114d9565b61114d82604051806040016040528060068152602001600080516020611566833981519152815250611033565b61115b578260a001516107ba565b50506080015190565b6040805161012081018252600080825260208201819052918101829052606081018290526080810182905260a0810182905260c0810182905260e0810182905261010081019190915290565b805182526020810151600160a060020a03808216602085015260408301516040850152806060840151166060850152806080840151166080850152505060a081015161120760a0840182600160a060020a03169052565b5060c081015160c083015260e081015161122560e084018215159052565b50610100908101511515910152565b6020808252825182820181905260009190848201906040850190845b81811015610383576112638385516111b0565b928401926101209290920191600101611250565b600160a060020a038116811461128c57600080fd5b50565b6000806000606084860312156112a457600080fd5b83356112af81611277565b95602085013595506040909401359392505050565b6000602082840312156112d657600080fd5b5035919050565b61014081016112ec82856111b0565b8215156101208301529392505050565b6000806040838503121561130f57600080fd5b823561131a81611277565b946020939093013593505050565b7f4e487b7100000000000000000000000000000000000000000000000000000000600052604160045260246000fd5b60006020828403121561136957600080fd5b813567ffffffffffffffff8082111561138157600080fd5b818401915084601f83011261139557600080fd5b8135818111156113a7576113a7611328565b604051601f8201601f19908116603f011681019083821181831017156113cf576113cf611328565b816040528281528760208487010111156113e857600080fd5b826020860160208301376000928101602001929092525095945050505050565b7f4e487b7100000000000000000000000000000000000000000000000000000000600052601160045260246000fd5b8181038181111561108757611087611408565b8082018082111561108757611087611408565b7f4e487b7100000000000000000000000000000000000000000000000000000000600052603260045260246000fd5b60006001820161149e5761149e611408565b5060010190565b6000602082840312156114b757600080fd5b81516107ba81611277565b6000816114d1576114d1611408565b506000190190565b60208082526025908201527f506172616d65746572206d757374206265202773656c6c657227206f7220276f60408201527f776e657227000000000000000000000000000000000000000000000000000000606082015260800190565b6000825160005b81811015611557576020818601810151858301520161153d565b50600092019182525091905056fe73656c6c65720000000000000000000000000000000000000000000000000000a26469706673582212201caacbdd9e460363204d39e6892e6a3594d53981ed9cc22cfc22c00335f7ea7c64736f6c63430008130033",
  "immutableReferences": {},
  "source": "// SPDX-License-Identifier: MIT\npragma solidity ^0.8.4;\n\nimport \"@openzeppelin/contracts/token/ERC721/ERC721.sol\";\nimport \"./NFT.sol\";\nimport \"@openzeppelin/contracts/security/ReentrancyGuard.sol\";\nimport \"@openzeppelin/contracts/utils/Counters.sol\";\n\ncontract Marketplace is ReentrancyGuard {\n    using Counters for Counters.Counter;\n\n    Counters.Counter private _marketItemIds;\n    Counters.Counter private _tokensSold;\n    Counters.Counter private _tokensCanceled;\n\n    address payable private owner;\n\n    // Challenge: make this price dynamic according to the current currency price\n    uint256 private listingFee = 0.045 ether;\n\n    mapping(uint256 => MarketItem) private marketItemIdToMarketItem;\n\n    struct MarketItem {\n        uint256 marketItemId;\n        address nftContractAddress;\n        uint256 tokenId;\n        address payable creator;\n        address payable seller;\n        address payable owner;\n        uint256 price;\n        bool sold;\n        bool canceled;\n    }\n\n    event MarketItemCreated(\n        uint256 indexed marketItemId,\n        address indexed nftContract,\n        uint256 indexed tokenId,\n        address creator,\n        address seller,\n        address owner,\n        uint256 price,\n        bool sold,\n        bool canceled\n    );\n\n    constructor() {\n        owner = payable(msg.sender);\n    }\n\n    function getListingFee() public view returns (uint256) {\n        return listingFee;\n    }\n\n    /**\n     * @dev Creates a market item listing, requiring a listing fee and transfering the NFT token from\n     * msg.sender to the marketplace contract.\n     */\n    function createMarketItem(\n        address nftContractAddress,\n        uint256 tokenId,\n        uint256 price\n    ) public payable nonReentrant returns (uint256) {\n        require(price > 0, \"asd\");\n        require(msg.value == listingFee, \"qweqwe\");\n        _marketItemIds.increment();\n        uint256 marketItemId = _marketItemIds.current();\n\n        address creator = NFT(nftContractAddress).getTokenCreatorById(tokenId);\n\n        marketItemIdToMarketItem[marketItemId] = MarketItem(\n            marketItemId,\n            nftContractAddress,\n            tokenId,\n            payable(creator),\n            payable(msg.sender),\n            payable(address(0)),\n            price,\n            false,\n            false\n        );\n\n        IERC721(nftContractAddress).transferFrom(msg.sender, address(this), tokenId);\n\n        emit MarketItemCreated(\n            marketItemId,\n            nftContractAddress,\n            tokenId,\n            payable(creator),\n            payable(msg.sender),\n            payable(address(0)),\n            price,\n            false,\n            false\n        );\n\n        return marketItemId;\n    }\n\n    /**\n     * @dev Cancel a market item\n     */\n    function cancelMarketItem(address nftContractAddress, uint256 marketItemId) public payable nonReentrant {\n        uint256 tokenId = marketItemIdToMarketItem[marketItemId].tokenId;\n        require(tokenId > 0, \"Market item has to exist\");\n\n        require(marketItemIdToMarketItem[marketItemId].seller == msg.sender, \"You are not the seller\");\n\n        IERC721(nftContractAddress).transferFrom(address(this), msg.sender, tokenId);\n\n        marketItemIdToMarketItem[marketItemId].owner = payable(msg.sender);\n        marketItemIdToMarketItem[marketItemId].canceled = true;\n\n        _tokensCanceled.increment();\n    }\n\n    /**\n     * @dev Get Latest Market Item by the token id\n     */\n    function getLatestMarketItemByTokenId(uint256 tokenId) public view returns (MarketItem memory, bool) {\n        uint256 itemsCount = _marketItemIds.current();\n\n        for (uint256 i = itemsCount; i > 0; i--) {\n            MarketItem memory item = marketItemIdToMarketItem[i];\n            if (item.tokenId != tokenId) continue;\n            return (item, true);\n        }\n\n        // What is the best practice for returning a \"null\" value in solidity?\n        // Reverting does't seem to be the best approach as it would throw an error on frontend\n        MarketItem memory emptyMarketItem;\n        return (emptyMarketItem, false);\n    }\n\n    /**\n     * @dev Creates a market sale by transfering msg.sender money to the seller and NFT token from the\n     * marketplace to the msg.sender. It also sends the listingFee to the marketplace owner.\n     */\n    function createMarketSale(address nftContractAddress, uint256 marketItemId) public payable nonReentrant {\n        uint256 price = marketItemIdToMarketItem[marketItemId].price;\n        uint256 tokenId = marketItemIdToMarketItem[marketItemId].tokenId;\n        require(msg.value == price, \"Please submit the asking price in order to continue\");\n\n        marketItemIdToMarketItem[marketItemId].owner = payable(msg.sender);\n        marketItemIdToMarketItem[marketItemId].sold = true;\n\n        marketItemIdToMarketItem[marketItemId].seller.transfer(msg.value);\n        IERC721(nftContractAddress).transferFrom(address(this), msg.sender, tokenId);\n\n        _tokensSold.increment();\n\n        payable(owner).transfer(listingFee);\n    }\n\n    /**\n     * @dev Fetch non sold and non canceled market items\n     */\n    function fetchAvailableMarketItems() public view returns (MarketItem[] memory) {\n        uint256 itemsCount = _marketItemIds.current();\n        uint256 soldItemsCount = _tokensSold.current();\n        uint256 canceledItemsCount = _tokensCanceled.current();\n        uint256 availableItemsCount = itemsCount - soldItemsCount - canceledItemsCount;\n        MarketItem[] memory marketItems = new MarketItem[](availableItemsCount);\n\n        uint256 currentIndex = 0;\n        for (uint256 i = 0; i < itemsCount; i++) {\n            // Is this refactor better than the original implementation?\n            // https://github.com/dabit3/polygon-ethereum-nextjs-marketplace/blob/main/contracts/Market.sol#L111\n            // If so, is it better to use memory or storage here?\n            MarketItem memory item = marketItemIdToMarketItem[i + 1];\n            if (item.owner != address(0)) continue;\n            marketItems[currentIndex] = item;\n            currentIndex += 1;\n        }\n\n        return marketItems;\n    }\n\n    /**\n     * @dev This seems to be the best way to compare strings in Solidity\n     */\n    function compareStrings(string memory a, string memory b) private pure returns (bool) {\n        return (keccak256(abi.encodePacked((a))) == keccak256(abi.encodePacked((b))));\n    }\n\n    /**\n     * @dev Since we can't access structs properties dinamically, this function selects the address\n     * we're looking for between \"owner\" and \"seller\"\n     */\n    function getMarketItemAddressByProperty(MarketItem memory item, string memory property)\n    private\n    pure\n    returns (address)\n    {\n        require(\n            compareStrings(property, \"seller\") || compareStrings(property, \"owner\"),\n            \"Parameter must be 'seller' or 'owner'\"\n        );\n\n        return compareStrings(property, \"seller\") ? item.seller : item.owner;\n    }\n\n    /**\n     * @dev Fetch market items that are being listed by the msg.sender\n     */\n    function fetchSellingMarketItems() public view returns (MarketItem[] memory) {\n        return fetchMarketItemsByAddressProperty(\"seller\");\n    }\n\n    /**\n     * @dev Fetch market items that are owned by the msg.sender\n     */\n    function fetchOwnedMarketItems() public view returns (MarketItem[] memory) {\n        return fetchMarketItemsByAddressProperty(\"owner\");\n    }\n\n    /**\n     * @dev Fetches market items according to the its requested address property that\n     * can be \"owner\" or \"seller\". The original implementations were two functions that were\n     * almost the same, changing only a property access. This refactored version requires an\n     * addional auxiliary function, but avoids repeating code.\n     * See original: https://github.com/dabit3/polygon-ethereum-nextjs-marketplace/blob/main/contracts/Market.sol#L121\n     */\n    function fetchMarketItemsByAddressProperty(string memory _addressProperty)\n    public\n    view\n    returns (MarketItem[] memory)\n    {\n        require(\n            compareStrings(_addressProperty, \"seller\") || compareStrings(_addressProperty, \"owner\"),\n            \"Parameter must be 'seller' or 'owner'\"\n        );\n        uint256 totalItemsCount = _marketItemIds.current();\n        uint256 itemCount = 0;\n        uint256 currentIndex = 0;\n\n        for (uint256 i = 0; i < totalItemsCount; i++) {\n            // Is it ok to assign this variable for better code legbility?\n            // Is it better to use memory or storage in this case?\n            MarketItem storage item = marketItemIdToMarketItem[i + 1];\n            address addressPropertyValue = getMarketItemAddressByProperty(item, _addressProperty);\n            if (addressPropertyValue != msg.sender) continue;\n            itemCount += 1;\n        }\n\n        MarketItem[] memory items = new MarketItem[](itemCount);\n\n        for (uint256 i = 0; i < totalItemsCount; i++) {\n            // Is it ok to assign this variable for better code legbility?\n            // Is it better to use memory or storage in this case?\n            MarketItem storage item = marketItemIdToMarketItem[i + 1];\n            address addressPropertyValue = getMarketItemAddressByProperty(item, _addressProperty);\n            if (addressPropertyValue != msg.sender) continue;\n            items[currentIndex] = item;\n            currentIndex += 1;\n        }\n\n        return items;\n    }\n}",
  "sourcePath": "/Users/junsu/Developer/Projects/2023/capstone/frontend/contracts/contracts/MarketPlace.sol",
  "compiler": {
    "name": "solc",
    "version": "0.8.19+commit.7dd6d404.Emscripten.clang"
  },
  "schemaVersion": "3.4.13",
  "updatedAt": "2023-05-10T11:48:30.704Z",
  "networkType": "ethereum",
  "devdoc": {
    "kind": "dev",
    "methods": {
      "cancelMarketItem(address,uint256)": {
        "details": "Cancel a market item"
      },
      "createMarketItem(address,uint256,uint256)": {
        "details": "Creates a market item listing, requiring a listing fee and transfering the NFT token from msg.sender to the marketplace contract."
      },
      "createMarketSale(address,uint256)": {
        "details": "Creates a market sale by transfering msg.sender money to the seller and NFT token from the marketplace to the msg.sender. It also sends the listingFee to the marketplace owner."
      },
      "fetchAvailableMarketItems()": {
        "details": "Fetch non sold and non canceled market items"
      },
      "fetchMarketItemsByAddressProperty(string)": {
        "details": "Fetches market items according to the its requested address property that can be \"owner\" or \"seller\". The original implementations were two functions that were almost the same, changing only a property access. This refactored version requires an addional auxiliary function, but avoids repeating code. See original: https://github.com/dabit3/polygon-ethereum-nextjs-marketplace/blob/main/contracts/Market.sol#L121"
      },
      "fetchOwnedMarketItems()": {
        "details": "Fetch market items that are owned by the msg.sender"
      },
      "fetchSellingMarketItems()": {
        "details": "Fetch market items that are being listed by the msg.sender"
      },
      "getLatestMarketItemByTokenId(uint256)": {
        "details": "Get Latest Market Item by the token id"
      }
    },
    "version": 1
  },
  "userdoc": {
    "kind": "user",
    "methods": {},
    "version": 1
  }
}