{
  "contractName": "MyblingNFT",
  "abi": [
    {
      "inputs": [
        {
          "internalType": "string",
          "name": "_name",
          "type": "string"
        },
        {
          "internalType": "string",
          "name": "_symbol",
          "type": "string"
        },
        {
          "internalType": "uint256",
          "name": "_limit",
          "type": "uint256"
        },
        {
          "internalType": "uint256",
          "name": "_price",
          "type": "uint256"
        },
        {
          "internalType": "uint256",
          "name": "_interval",
          "type": "uint256"
        },
        {
          "internalType": "uint256",
          "name": "_revelingBlock",
          "type": "uint256"
        },
        {
          "internalType": "string",
          "name": "_notReveledNFTURI",
          "type": "string"
        }
      ],
      "stateMutability": "nonpayable",
      "type": "constructor"
    },
    {
      "inputs": [],
      "name": "FailedToWithdraw",
      "type": "error"
    },
    {
      "inputs": [
        {
          "internalType": "uint256",
          "name": "paidPrice",
          "type": "uint256"
        },
        {
          "internalType": "uint256",
          "name": "price",
          "type": "uint256"
        }
      ],
      "name": "InsufficientValue",
      "type": "error"
    },
    {
      "inputs": [],
      "name": "OutOfNFTs",
      "type": "error"
    },
    {
      "inputs": [
        {
          "internalType": "uint256",
          "name": "tillBlock",
          "type": "uint256"
        },
        {
          "internalType": "uint256",
          "name": "currentBlock",
          "type": "uint256"
        }
      ],
      "name": "WaitForACoupleOfBlocks",
      "type": "error"
    },
    {
      "anonymous": false,
      "inputs": [
        {
          "indexed": true,
          "internalType": "address",
          "name": "owner",
          "type": "address"
        },
        {
          "indexed": true,
          "internalType": "address",
          "name": "approved",
          "type": "address"
        },
        {
          "indexed": true,
          "internalType": "uint256",
          "name": "tokenId",
          "type": "uint256"
        }
      ],
      "name": "Approval",
      "type": "event"
    },
    {
      "anonymous": false,
      "inputs": [
        {
          "indexed": true,
          "internalType": "address",
          "name": "owner",
          "type": "address"
        },
        {
          "indexed": true,
          "internalType": "address",
          "name": "operator",
          "type": "address"
        },
        {
          "indexed": false,
          "internalType": "bool",
          "name": "approved",
          "type": "bool"
        }
      ],
      "name": "ApprovalForAll",
      "type": "event"
    },
    {
      "anonymous": false,
      "inputs": [
        {
          "indexed": true,
          "internalType": "address",
          "name": "previousOwner",
          "type": "address"
        },
        {
          "indexed": true,
          "internalType": "address",
          "name": "newOwner",
          "type": "address"
        }
      ],
      "name": "OwnershipTransferred",
      "type": "event"
    },
    {
      "anonymous": false,
      "inputs": [
        {
          "indexed": true,
          "internalType": "address",
          "name": "from",
          "type": "address"
        },
        {
          "indexed": true,
          "internalType": "address",
          "name": "to",
          "type": "address"
        },
        {
          "indexed": true,
          "internalType": "uint256",
          "name": "tokenId",
          "type": "uint256"
        }
      ],
      "name": "Transfer",
      "type": "event"
    },
    {
      "inputs": [
        {
          "internalType": "address",
          "name": "",
          "type": "address"
        }
      ],
      "name": "NumberTracker",
      "outputs": [
        {
          "internalType": "uint256",
          "name": "",
          "type": "uint256"
        }
      ],
      "stateMutability": "view",
      "type": "function",
      "constant": true
    },
    {
      "inputs": [
        {
          "internalType": "address",
          "name": "to",
          "type": "address"
        },
        {
          "internalType": "uint256",
          "name": "tokenId",
          "type": "uint256"
        }
      ],
      "name": "approve",
      "outputs": [],
      "stateMutability": "nonpayable",
      "type": "function"
    },
    {
      "inputs": [
        {
          "internalType": "address",
          "name": "owner",
          "type": "address"
        }
      ],
      "name": "balanceOf",
      "outputs": [
        {
          "internalType": "uint256",
          "name": "",
          "type": "uint256"
        }
      ],
      "stateMutability": "view",
      "type": "function",
      "constant": true
    },
    {
      "inputs": [
        {
          "internalType": "uint256",
          "name": "tokenId",
          "type": "uint256"
        }
      ],
      "name": "getApproved",
      "outputs": [
        {
          "internalType": "address",
          "name": "",
          "type": "address"
        }
      ],
      "stateMutability": "view",
      "type": "function",
      "constant": true
    },
    {
      "inputs": [],
      "name": "interval",
      "outputs": [
        {
          "internalType": "uint256",
          "name": "",
          "type": "uint256"
        }
      ],
      "stateMutability": "view",
      "type": "function",
      "constant": true
    },
    {
      "inputs": [
        {
          "internalType": "address",
          "name": "owner",
          "type": "address"
        },
        {
          "internalType": "address",
          "name": "operator",
          "type": "address"
        }
      ],
      "name": "isApprovedForAll",
      "outputs": [
        {
          "internalType": "bool",
          "name": "",
          "type": "bool"
        }
      ],
      "stateMutability": "view",
      "type": "function",
      "constant": true
    },
    {
      "inputs": [],
      "name": "latestId",
      "outputs": [
        {
          "internalType": "uint256",
          "name": "",
          "type": "uint256"
        }
      ],
      "stateMutability": "view",
      "type": "function",
      "constant": true
    },
    {
      "inputs": [],
      "name": "limit",
      "outputs": [
        {
          "internalType": "uint256",
          "name": "",
          "type": "uint256"
        }
      ],
      "stateMutability": "view",
      "type": "function",
      "constant": true
    },
    {
      "inputs": [],
      "name": "name",
      "outputs": [
        {
          "internalType": "string",
          "name": "",
          "type": "string"
        }
      ],
      "stateMutability": "view",
      "type": "function",
      "constant": true
    },
    {
      "inputs": [],
      "name": "notReveledNFTURI",
      "outputs": [
        {
          "internalType": "string",
          "name": "",
          "type": "string"
        }
      ],
      "stateMutability": "view",
      "type": "function",
      "constant": true
    },
    {
      "inputs": [],
      "name": "owner",
      "outputs": [
        {
          "internalType": "address",
          "name": "",
          "type": "address"
        }
      ],
      "stateMutability": "view",
      "type": "function",
      "constant": true
    },
    {
      "inputs": [
        {
          "internalType": "uint256",
          "name": "tokenId",
          "type": "uint256"
        }
      ],
      "name": "ownerOf",
      "outputs": [
        {
          "internalType": "address",
          "name": "",
          "type": "address"
        }
      ],
      "stateMutability": "view",
      "type": "function",
      "constant": true
    },
    {
      "inputs": [],
      "name": "price",
      "outputs": [
        {
          "internalType": "uint256",
          "name": "",
          "type": "uint256"
        }
      ],
      "stateMutability": "view",
      "type": "function",
      "constant": true
    },
    {
      "inputs": [],
      "name": "renounceOwnership",
      "outputs": [],
      "stateMutability": "nonpayable",
      "type": "function"
    },
    {
      "inputs": [],
      "name": "revelingBlock",
      "outputs": [
        {
          "internalType": "uint256",
          "name": "",
          "type": "uint256"
        }
      ],
      "stateMutability": "view",
      "type": "function",
      "constant": true
    },
    {
      "inputs": [
        {
          "internalType": "address",
          "name": "from",
          "type": "address"
        },
        {
          "internalType": "address",
          "name": "to",
          "type": "address"
        },
        {
          "internalType": "uint256",
          "name": "tokenId",
          "type": "uint256"
        }
      ],
      "name": "safeTransferFrom",
      "outputs": [],
      "stateMutability": "nonpayable",
      "type": "function"
    },
    {
      "inputs": [
        {
          "internalType": "address",
          "name": "from",
          "type": "address"
        },
        {
          "internalType": "address",
          "name": "to",
          "type": "address"
        },
        {
          "internalType": "uint256",
          "name": "tokenId",
          "type": "uint256"
        },
        {
          "internalType": "bytes",
          "name": "data",
          "type": "bytes"
        }
      ],
      "name": "safeTransferFrom",
      "outputs": [],
      "stateMutability": "nonpayable",
      "type": "function"
    },
    {
      "inputs": [
        {
          "internalType": "address",
          "name": "operator",
          "type": "address"
        },
        {
          "internalType": "bool",
          "name": "approved",
          "type": "bool"
        }
      ],
      "name": "setApprovalForAll",
      "outputs": [],
      "stateMutability": "nonpayable",
      "type": "function"
    },
    {
      "inputs": [
        {
          "internalType": "bytes4",
          "name": "interfaceId",
          "type": "bytes4"
        }
      ],
      "name": "supportsInterface",
      "outputs": [
        {
          "internalType": "bool",
          "name": "",
          "type": "bool"
        }
      ],
      "stateMutability": "view",
      "type": "function",
      "constant": true
    },
    {
      "inputs": [],
      "name": "symbol",
      "outputs": [
        {
          "internalType": "string",
          "name": "",
          "type": "string"
        }
      ],
      "stateMutability": "view",
      "type": "function",
      "constant": true
    },
    {
      "inputs": [
        {
          "internalType": "uint256",
          "name": "index",
          "type": "uint256"
        }
      ],
      "name": "tokenByIndex",
      "outputs": [
        {
          "internalType": "uint256",
          "name": "",
          "type": "uint256"
        }
      ],
      "stateMutability": "view",
      "type": "function",
      "constant": true
    },
    {
      "inputs": [
        {
          "internalType": "address",
          "name": "owner",
          "type": "address"
        },
        {
          "internalType": "uint256",
          "name": "index",
          "type": "uint256"
        }
      ],
      "name": "tokenOfOwnerByIndex",
      "outputs": [
        {
          "internalType": "uint256",
          "name": "",
          "type": "uint256"
        }
      ],
      "stateMutability": "view",
      "type": "function",
      "constant": true
    },
    {
      "inputs": [],
      "name": "totalSupply",
      "outputs": [
        {
          "internalType": "uint256",
          "name": "",
          "type": "uint256"
        }
      ],
      "stateMutability": "view",
      "type": "function",
      "constant": true
    },
    {
      "inputs": [
        {
          "internalType": "address",
          "name": "from",
          "type": "address"
        },
        {
          "internalType": "address",
          "name": "to",
          "type": "address"
        },
        {
          "internalType": "uint256",
          "name": "tokenId",
          "type": "uint256"
        }
      ],
      "name": "transferFrom",
      "outputs": [],
      "stateMutability": "nonpayable",
      "type": "function"
    },
    {
      "inputs": [
        {
          "internalType": "address",
          "name": "newOwner",
          "type": "address"
        }
      ],
      "name": "transferOwnership",
      "outputs": [],
      "stateMutability": "nonpayable",
      "type": "function"
    },
    {
      "stateMutability": "payable",
      "type": "receive",
      "payable": true
    },
    {
      "inputs": [],
      "name": "mint",
      "outputs": [],
      "stateMutability": "payable",
      "type": "function",
      "payable": true
    },
    {
      "inputs": [
        {
          "internalType": "uint256",
          "name": "tokenId",
          "type": "uint256"
        }
      ],
      "name": "tokenURI",
      "outputs": [
        {
          "internalType": "string",
          "name": "",
          "type": "string"
        }
      ],
      "stateMutability": "view",
      "type": "function",
      "constant": true
    },
    {
      "inputs": [
        {
          "internalType": "address",
          "name": "_to",
          "type": "address"
        },
        {
          "internalType": "uint256",
          "name": "_number",
          "type": "uint256"
        }
      ],
      "name": "airdrop",
      "outputs": [],
      "stateMutability": "nonpayable",
      "type": "function"
    },
    {
      "inputs": [
        {
          "internalType": "address[]",
          "name": "_to",
          "type": "address[]"
        }
      ],
      "name": "airdrops",
      "outputs": [],
      "stateMutability": "nonpayable",
      "type": "function"
    },
    {
      "inputs": [
        {
          "internalType": "uint256",
          "name": "_price",
          "type": "uint256"
        }
      ],
      "name": "setPrice",
      "outputs": [],
      "stateMutability": "nonpayable",
      "type": "function"
    },
    {
      "inputs": [
        {
          "internalType": "uint256",
          "name": "_interval",
          "type": "uint256"
        }
      ],
      "name": "setInterval",
      "outputs": [],
      "stateMutability": "nonpayable",
      "type": "function"
    },
    {
      "inputs": [],
      "name": "currentBalance",
      "outputs": [
        {
          "internalType": "uint256",
          "name": "",
          "type": "uint256"
        }
      ],
      "stateMutability": "view",
      "type": "function",
      "constant": true
    },
    {
      "inputs": [],
      "name": "withdraw",
      "outputs": [],
      "stateMutability": "nonpayable",
      "type": "function"
    }
  ],
  "bytecode": "0x60806040523480156200001157600080fd5b50604051620028b5380380620028b58339810160408190526200003491620001f5565b8686600062000044838262000355565b50600162000053828262000355565b5050506200008262000073620000c1640100000000026401000000009004565b640100000000620000c5810204565b6001600b55600d859055600f8490556010839055620000a2438362000427565b6011556012620000b3828262000355565b505050505050505062000468565b3390565b600a8054600160a060020a03838116600160a060020a0319831681179093556040519116919082907f8be0079c531659141344cd1fd0a4f28419497f9722a3daafe3b4186f6b6457e090600090a35050565b7f4e487b7100000000000000000000000000000000000000000000000000000000600052604160045260246000fd5b600082601f8301126200015857600080fd5b81516001604060020a038082111562000175576200017562000117565b604051601f8301601f19908116603f01168101908282118183101715620001a057620001a062000117565b81604052838152602092508683858801011115620001bd57600080fd5b600091505b83821015620001e15785820183015181830184015290820190620001c2565b600093810190920192909252949350505050565b600080600080600080600060e0888a0312156200021157600080fd5b87516001604060020a03808211156200022957600080fd5b620002378b838c0162000146565b985060208a01519150808211156200024e57600080fd5b6200025c8b838c0162000146565b975060408a0151965060608a0151955060808a0151945060a08a0151935060c08a01519150808211156200028f57600080fd5b506200029e8a828b0162000146565b91505092959891949750929550565b600281046001821680620002c257607f821691505b602082108103620002fc577f4e487b7100000000000000000000000000000000000000000000000000000000600052602260045260246000fd5b50919050565b601f82111562000350576000818152602081206020601f860104810160208610156200032b5750805b6020601f860104820191505b818110156200034c5782815560010162000337565b5050505b505050565b81516001604060020a0381111562000371576200037162000117565b6200038981620003828454620002ad565b8462000302565b602080601f831160018114620003c55760008415620003a85750858301515b60028086026008870290910a60001904198216178655506200034c565b600085815260208120601f198616915b82811015620003f657888601518255948401946001909101908401620003d5565b50858210156200041757878501516008601f88160260020a60001904191681555b5050505050600202600101905550565b8082018082111562000462577f4e487b7100000000000000000000000000000000000000000000000000000000600052601160045260246000fd5b92915050565b61243d80620004786000396000f3fe60806040526004361061020f576000357c0100000000000000000000000000000000000000000000000000000000900480636352211e1161012a578063a035b1fe116100bd578063b88d4fde1161008c578063b88d4fde14610566578063c87b56dd14610586578063ce845d1d146105a6578063e985e9c5146105ba578063f2fde38b1461060357600080fd5b8063a035b1fe14610504578063a06995021461051a578063a22cb46514610530578063a4d66daf1461055057600080fd5b80638da5cb5b116100f95780638da5cb5b1461049b57806391b7f5ed146104b9578063947a36fb146104d957806395d89b41146104ef57600080fd5b80636352211e1461042657806370a0823114610446578063715018a6146104665780638ba4cc3c1461047b57600080fd5b806323b872dd116101a257806342842e0e1161017157806342842e0e146103b05780634bfbbe0b146103d05780634e99d51e146103e65780634f6ccce71461040657600080fd5b806323b872dd1461032e57806324409c301461034e5780632f745c591461037b5780633ccfd60b1461039b57600080fd5b80631249c58b116101de5780631249c58b146102d257806318160ddd146102da5780631d5ae7c8146102f957806322a900821461030e57600080fd5b806301ffc9a71461022357806306fdde0314610258578063081812fc1461027a578063095ea7b3146102b257600080fd5b3661021e5761021c610623565b005b600080fd5b34801561022f57600080fd5b5061024361023e366004611e36565b61078b565b60405190151581526020015b60405180910390f35b34801561026457600080fd5b5061026d6107cf565b60405161024f9190611ea3565b34801561028657600080fd5b5061029a610295366004611eb6565b610861565b604051600160a060020a03909116815260200161024f565b3480156102be57600080fd5b5061021c6102cd366004611eeb565b610888565b61021c610623565b3480156102e657600080fd5b506008545b60405190815260200161024f565b34801561030557600080fd5b5061026d6109bf565b34801561031a57600080fd5b5061021c610329366004611eb6565b610a4d565b34801561033a57600080fd5b5061021c610349366004611f15565b610a5a565b34801561035a57600080fd5b506102eb610369366004611f51565b600c6020526000908152604090205481565b34801561038757600080fd5b506102eb610396366004611eeb565b610a8e565b3480156103a757600080fd5b5061021c610b39565b3480156103bc57600080fd5b5061021c6103cb366004611f15565b610bc7565b3480156103dc57600080fd5b506102eb600e5481565b3480156103f257600080fd5b5061021c610401366004611f6c565b610be2565b34801561041257600080fd5b506102eb610421366004611eb6565b610c90565b34801561043257600080fd5b5061029a610441366004611eb6565b610d37565b34801561045257600080fd5b506102eb610461366004611f51565b610d9f565b34801561047257600080fd5b5061021c610e3c565b34801561048757600080fd5b5061021c610496366004611eeb565b610e4e565b3480156104a757600080fd5b50600a54600160a060020a031661029a565b3480156104c557600080fd5b5061021c6104d4366004611eb6565b610ecd565b3480156104e557600080fd5b506102eb60105481565b3480156104fb57600080fd5b5061026d610eda565b34801561051057600080fd5b506102eb600f5481565b34801561052657600080fd5b506102eb60115481565b34801561053c57600080fd5b5061021c61054b366004611fe0565b610ee9565b34801561055c57600080fd5b506102eb600d5481565b34801561057257600080fd5b5061021c610581366004612035565b610ef8565b34801561059257600080fd5b5061026d6105a1366004611eb6565b610f2d565b3480156105b257600080fd5b5030316102eb565b3480156105c657600080fd5b506102436105d5366004612111565b600160a060020a03918216600090815260056020908152604080832093909416825291909152205460ff1690565b34801561060f57600080fd5b5061021c61061e366004611f51565b61102f565b61062b6110bf565b336000908152600c60205260409020541561066557601054336000908152600c6020526040902054439161065e9161215d565b1015610668565b60005b156106cb57601054336000908152600c602052604090205461068a919061215d565b6040517f5577bb1f00000000000000000000000000000000000000000000000000000000815260048101919091524360248201526044015b60405180910390fd5b34600f541461071357600f546040517f7040b58c00000000000000000000000000000000000000000000000000000000815234600482015260248101919091526044016106c2565b600d54600e5410610750576040517fd829899900000000000000000000000000000000000000000000000000000000815260040160405180910390fd5b61076d33600e6000815461076390612170565b918290555061111b565b336000908152600c602052604090204390556107896001600b55565b565b6000600160e060020a031982167f780e9d630000000000000000000000000000000000000000000000000000000014806107c957506107c982611135565b92915050565b6060600080546107de90612189565b80601f016020809104026020016040519081016040528092919081815260200182805461080a90612189565b80156108575780601f1061082c57610100808354040283529160200191610857565b820191906000526020600020905b81548152906001019060200180831161083a57829003601f168201915b5050505050905090565b600061086c826111d0565b50600090815260046020526040902054600160a060020a031690565b600061089382610d37565b905080600160a060020a031683600160a060020a03160361091f5760405160e560020a62461bcd02815260206004820152602160248201527f4552433732313a20617070726f76616c20746f2063757272656e74206f776e6560448201527f720000000000000000000000000000000000000000000000000000000000000060648201526084016106c2565b33600160a060020a038216148061093b575061093b81336105d5565b6109b05760405160e560020a62461bcd02815260206004820152603d60248201527f4552433732313a20617070726f76652063616c6c6572206973206e6f7420746f60448201527f6b656e206f776e6572206f7220617070726f76656420666f7220616c6c00000060648201526084016106c2565b6109ba8383611237565b505050565b601280546109cc90612189565b80601f01602080910402602001604051908101604052809291908181526020018280546109f890612189565b8015610a455780601f10610a1a57610100808354040283529160200191610a45565b820191906000526020600020905b815481529060010190602001808311610a2857829003601f168201915b505050505081565b610a556112b2565b601055565b610a64338261130f565b610a835760405160e560020a62461bcd0281526004016106c2906121c6565b6109ba83838361138e565b6000610a9983610d9f565b8210610b105760405160e560020a62461bcd02815260206004820152602b60248201527f455243373231456e756d657261626c653a206f776e657220696e646578206f7560448201527f74206f6620626f756e647300000000000000000000000000000000000000000060648201526084016106c2565b50600160a060020a03919091166000908152600660209081526040808320938352929052205490565b610b416112b2565b60405160009033903031908381818185875af1925050503d8060008114610b84576040519150601f19603f3d011682016040523d82523d6000602084013e610b89565b606091505b5050905080610bc4576040517f2684a07900000000000000000000000000000000000000000000000000000000815260040160405180910390fd5b50565b6109ba83838360405180602001604052806000815250610ef8565b610bea6112b2565b600d54600e54829190610bfe90839061215d565b1115610c36576040517fd829899900000000000000000000000000000000000000000000000000000000815260040160405180910390fd5b60005b81811015610c8a57610c7a848483818110610c5657610c56612223565b9050602002016020810190610c6b9190611f51565b600e6000815461076390612170565b610c8381612170565b9050610c39565b50505050565b6000610c9b60085490565b8210610d125760405160e560020a62461bcd02815260206004820152602c60248201527f455243373231456e756d657261626c653a20676c6f62616c20696e646578206f60448201527f7574206f6620626f756e6473000000000000000000000000000000000000000060648201526084016106c2565b60088281548110610d2557610d25612223565b90600052602060002001549050919050565b600081815260026020526040812054600160a060020a0316806107c95760405160e560020a62461bcd02815260206004820152601860248201527f4552433732313a20696e76616c696420746f6b656e204944000000000000000060448201526064016106c2565b6000600160a060020a038216610e205760405160e560020a62461bcd02815260206004820152602960248201527f4552433732313a2061646472657373207a65726f206973206e6f74206120766160448201527f6c6964206f776e6572000000000000000000000000000000000000000000000060648201526084016106c2565b50600160a060020a031660009081526003602052604090205490565b610e446112b2565b610789600061152e565b610e566112b2565b600d5481600e54610e67919061215d565b1115610e9f576040517fd829899900000000000000000000000000000000000000000000000000000000815260040160405180910390fd5b60005b818110156109ba57610ebd83600e6000815461076390612170565b610ec681612170565b9050610ea2565b610ed56112b2565b600f55565b6060600180546107de90612189565b610ef433838361158d565b5050565b610f02338361130f565b610f215760405160e560020a62461bcd0281526004016106c2906121c6565b610c8a8484848461165e565b6060610f38826111d0565b4360115411610f9d576000610f4b611694565b90506000815111610f6b5760405180602001604052806000815250610f96565b80610f75846116b4565b604051602001610f8692919061223c565b6040516020818303038152906040525b9392505050565b60128054610faa90612189565b80601f0160208091040260200160405190810160405280929190818152602001828054610fd690612189565b80156110235780601f10610ff857610100808354040283529160200191611023565b820191906000526020600020905b81548152906001019060200180831161100657829003601f168201915b50505050509050919050565b6110376112b2565b600160a060020a0381166110b65760405160e560020a62461bcd02815260206004820152602660248201527f4f776e61626c653a206e6577206f776e657220697320746865207a65726f206160448201527f646472657373000000000000000000000000000000000000000000000000000060648201526084016106c2565b610bc48161152e565b6002600b54036111145760405160e560020a62461bcd02815260206004820152601f60248201527f5265656e7472616e637947756172643a207265656e7472616e742063616c6c0060448201526064016106c2565b6002600b55565b610ef4828260405180602001604052806000815250611754565b6000600160e060020a031982167f80ac58cd0000000000000000000000000000000000000000000000000000000014806111985750600160e060020a031982167f5b5e139f00000000000000000000000000000000000000000000000000000000145b806107c957507f01ffc9a700000000000000000000000000000000000000000000000000000000600160e060020a03198316146107c9565b600081815260026020526040902054600160a060020a0316610bc45760405160e560020a62461bcd02815260206004820152601860248201527f4552433732313a20696e76616c696420746f6b656e204944000000000000000060448201526064016106c2565b6000818152600460205260409020805473ffffffffffffffffffffffffffffffffffffffff1916600160a060020a038416908117909155819061127982610d37565b600160a060020a03167f8c5be1e5ebec7d5bd14f71427d1e84f3dd0314c0f7b2291e5b200ac8c7c3b92560405160405180910390a45050565b600a54600160a060020a031633146107895760405160e560020a62461bcd02815260206004820181905260248201527f4f776e61626c653a2063616c6c6572206973206e6f7420746865206f776e657260448201526064016106c2565b60008061131b83610d37565b905080600160a060020a031684600160a060020a031614806113625750600160a060020a0380821660009081526005602090815260408083209388168352929052205460ff165b80611386575083600160a060020a031661137b84610861565b600160a060020a0316145b949350505050565b82600160a060020a03166113a182610d37565b600160a060020a0316146113ca5760405160e560020a62461bcd0281526004016106c290612293565b600160a060020a0382166114485760405160e560020a62461bcd028152602060048201526024808201527f4552433732313a207472616e7366657220746f20746865207a65726f2061646460448201527f726573730000000000000000000000000000000000000000000000000000000060648201526084016106c2565b611455838383600161178a565b82600160a060020a031661146882610d37565b600160a060020a0316146114915760405160e560020a62461bcd0281526004016106c290612293565b6000818152600460209081526040808320805473ffffffffffffffffffffffffffffffffffffffff19908116909155600160a060020a0387811680865260038552838620805460001901905590871680865283862080546001019055868652600290945282852080549092168417909155905184937fddf252ad1be2c89b69c2b068fc378daa952ba7f163c4a11628f55a4df523b3ef91a4505050565b600a8054600160a060020a0383811673ffffffffffffffffffffffffffffffffffffffff19831681179093556040519116919082907f8be0079c531659141344cd1fd0a4f28419497f9722a3daafe3b4186f6b6457e090600090a35050565b81600160a060020a031683600160a060020a0316036115f15760405160e560020a62461bcd02815260206004820152601960248201527f4552433732313a20617070726f766520746f2063616c6c65720000000000000060448201526064016106c2565b600160a060020a03838116600081815260056020908152604080832094871680845294825291829020805460ff191686151590811790915591519182527f17307eab39ab6107e8899845ad3d59bd9653f200f220920489ca2b5937696c31910160405180910390a3505050565b61166984848461138e565b611675848484846118c9565b610c8a5760405160e560020a62461bcd0281526004016106c2906122f0565b60606040518060600160405280603581526020016123d360359139905090565b606060006116c1836119ff565b600101905060008167ffffffffffffffff8111156116e1576116e161201c565b6040519080825280601f01601f19166020018201604052801561170b576020820181803683370190505b5090508181016020015b600019017f3031323334353637383961626364656600000000000000000000000000000000600a86061a8153600a850494508461171557509392505050565b61175e8383611ae1565b61176b60008484846118c9565b6109ba5760405160e560020a62461bcd0281526004016106c2906122f0565b60018111156118045760405160e560020a62461bcd02815260206004820152603560248201527f455243373231456e756d657261626c653a20636f6e736563757469766520747260448201527f616e7366657273206e6f7420737570706f72746564000000000000000000000060648201526084016106c2565b81600160a060020a0385166118605761185b81600880546000838152600960205260408120829055600182018355919091527ff3f7a9fe364faab93b216da50a3214154f22a0a2b415b23a84c8169e8b636ee30155565b611883565b83600160a060020a031685600160a060020a031614611883576118838582611c90565b600160a060020a03841661189f5761189a81611d2d565b6118c2565b84600160a060020a031684600160a060020a0316146118c2576118c28482611ddc565b5050505050565b6000600160a060020a0384163b156119f4576040517f150b7a02000000000000000000000000000000000000000000000000000000008152600160a060020a0385169063150b7a029061192690339089908890889060040161234d565b6020604051808303816000875af1925050508015611961575060408051601f3d908101601f1916820190925261195e91810190612389565b60015b6119c1573d80801561198f576040519150601f19603f3d011682016040523d82523d6000602084013e611994565b606091505b5080516000036119b95760405160e560020a62461bcd0281526004016106c2906122f0565b805181602001fd5b600160e060020a0319167f150b7a0200000000000000000000000000000000000000000000000000000000149050611386565b506001949350505050565b6000807a184f03e93ff9f4daa797ed6e38ed64bf6a1f0100000000000000008310611a48577a184f03e93ff9f4daa797ed6e38ed64bf6a1f010000000000000000830492506040015b6d04ee2d6d415b85acef81000000008310611a74576d04ee2d6d415b85acef8100000000830492506020015b662386f26fc100008310611a9257662386f26fc10000830492506010015b6305f5e1008310611aaa576305f5e100830492506008015b6127108310611abe57612710830492506004015b60648310611ad0576064830492506002015b600a83106107c95760010192915050565b600160a060020a038216611b3a5760405160e560020a62461bcd02815260206004820181905260248201527f4552433732313a206d696e7420746f20746865207a65726f206164647265737360448201526064016106c2565b600081815260026020526040902054600160a060020a031615611ba25760405160e560020a62461bcd02815260206004820152601c60248201527f4552433732313a20746f6b656e20616c7265616479206d696e7465640000000060448201526064016106c2565b611bb060008383600161178a565b600081815260026020526040902054600160a060020a031615611c185760405160e560020a62461bcd02815260206004820152601c60248201527f4552433732313a20746f6b656e20616c7265616479206d696e7465640000000060448201526064016106c2565b600160a060020a0382166000818152600360209081526040808320805460010190558483526002909152808220805473ffffffffffffffffffffffffffffffffffffffff19168417905551839291907fddf252ad1be2c89b69c2b068fc378daa952ba7f163c4a11628f55a4df523b3ef908290a45050565b60006001611c9d84610d9f565b611ca791906123a6565b600083815260076020526040902054909150808214611cfa57600160a060020a03841660009081526006602090815260408083208584528252808320548484528184208190558352600790915290208190555b506000918252600760209081526040808420849055600160a060020a039094168352600681528383209183525290812055565b600854600090611d3f906001906123a6565b60008381526009602052604081205460088054939450909284908110611d6757611d67612223565b906000526020600020015490508060088381548110611d8857611d88612223565b6000918252602080832090910192909255828152600990915260408082208490558582528120556008805480611dc057611dc06123b9565b6001900381819060005260206000200160009055905550505050565b6000611de783610d9f565b600160a060020a039093166000908152600660209081526040808320868452825280832085905593825260079052919091209190915550565b600160e060020a031981168114610bc457600080fd5b600060208284031215611e4857600080fd5b8135610f9681611e20565b60005b83811015611e6e578181015183820152602001611e56565b50506000910152565b60008151808452611e8f816020860160208601611e53565b601f01601f19169290920160200192915050565b602081526000610f966020830184611e77565b600060208284031215611ec857600080fd5b5035919050565b8035600160a060020a0381168114611ee657600080fd5b919050565b60008060408385031215611efe57600080fd5b611f0783611ecf565b946020939093013593505050565b600080600060608486031215611f2a57600080fd5b611f3384611ecf565b9250611f4160208501611ecf565b9150604084013590509250925092565b600060208284031215611f6357600080fd5b610f9682611ecf565b60008060208385031215611f7f57600080fd5b823567ffffffffffffffff80821115611f9757600080fd5b818501915085601f830112611fab57600080fd5b813581811115611fba57600080fd5b8660208083028501011115611fce57600080fd5b60209290920196919550909350505050565b60008060408385031215611ff357600080fd5b611ffc83611ecf565b91506020830135801515811461201157600080fd5b809150509250929050565b60e060020a634e487b7102600052604160045260246000fd5b6000806000806080858703121561204b57600080fd5b61205485611ecf565b935061206260208601611ecf565b925060408501359150606085013567ffffffffffffffff8082111561208657600080fd5b818701915087601f83011261209a57600080fd5b8135818111156120ac576120ac61201c565b604051601f8201601f19908116603f011681019083821181831017156120d4576120d461201c565b816040528281528a60208487010111156120ed57600080fd5b82602086016020830137600060208483010152809550505050505092959194509250565b6000806040838503121561212457600080fd5b61212d83611ecf565b915061213b60208401611ecf565b90509250929050565b60e060020a634e487b7102600052601160045260246000fd5b808201808211156107c9576107c9612144565b60006001820161218257612182612144565b5060010190565b60028104600182168061219d57607f821691505b6020821081036121c05760e060020a634e487b7102600052602260045260246000fd5b50919050565b6020808252602d908201527f4552433732313a2063616c6c6572206973206e6f7420746f6b656e206f776e6560408201527f72206f7220617070726f76656400000000000000000000000000000000000000606082015260800190565b60e060020a634e487b7102600052603260045260246000fd5b6000835161224e818460208801611e53565b835190830190612262818360208801611e53565b7f2e6a736f6e0000000000000000000000000000000000000000000000000000009101908152600501949350505050565b60208082526025908201527f4552433732313a207472616e736665722066726f6d20696e636f72726563742060408201527f6f776e6572000000000000000000000000000000000000000000000000000000606082015260800190565b60208082526032908201527f4552433732313a207472616e7366657220746f206e6f6e20455243373231526560408201527f63656976657220696d706c656d656e7465720000000000000000000000000000606082015260800190565b6000600160a060020a0380871683528086166020840152508360408301526080606083015261237f6080830184611e77565b9695505050505050565b60006020828403121561239b57600080fd5b8151610f9681611e20565b818103818111156107c9576107c9612144565b60e060020a634e487b7102600052603160045260246000fdfe697066733a2f2f516d5044354161774e42444c56504d4e374171344b6651694a58535a6962783252444c733166345a626358316238a2646970667358221220197b95835f99238243a2d64043cef14dc3fadbaee9a8d665aa311dc212d54fbd64736f6c63430008130033",
  "immutableReferences": {},
  "source": "// SPDX-License-Identifier: MIT\npragma solidity ^0.8.0;\n\nimport \"../node_modules/@openzeppelin/contracts/token/ERC721/extensions/ERC721Enumerable.sol\";\nimport \"../node_modules/@openzeppelin/contracts/access/Ownable.sol\";\nimport \"../node_modules/@openzeppelin/contracts/security/ReentrancyGuard.sol\";\nimport \"../node_modules/@openzeppelin/contracts/utils/Strings.sol\";\n\ncontract MyblingNFT is ERC721Enumerable, Ownable, ReentrancyGuard{\n\n    error WaitForACoupleOfBlocks(uint tillBlock, uint currentBlock);\n    error InsufficientValue(uint paidPrice, uint price);\n    error OutOfNFTs();\n    error FailedToWithdraw();\n\n    mapping(address=>uint) public NumberTracker;\n    uint public limit;\n    uint public latestId;\n    uint public price;\n    uint public interval;\n    uint public revelingBlock;\n    string public notReveledNFTURI;\n\n    using Strings for uint;\n\n    constructor(\n        string memory _name,\n        string memory _symbol,\n        uint _limit,\n        uint _price,\n        uint _interval,\n        uint _revelingBlock,\n        string memory _notReveledNFTURI\n    ) ERC721(_name, _symbol) {\n        limit = _limit;\n        price = _price;\n        interval = _interval;\n        revelingBlock = _revelingBlock + block.number;\n        notReveledNFTURI = _notReveledNFTURI;\n    }\n\n    receive() external payable{\n       mint();\n    }\n\n    function mint() public payable nonReentrant() {\n        if (NumberTracker[msg.sender] == 0 ? false : NumberTracker[msg.sender] + interval >= block.number) {\n            revert WaitForACoupleOfBlocks(NumberTracker[msg.sender] + interval, block.number);\n        }\n\n        if (price != msg.value) {\n            revert InsufficientValue(msg.value, price);\n        }\n\n        if (latestId >= limit) {\n            revert OutOfNFTs();\n        }\n\n        _safeMint(msg.sender, ++latestId);\n        NumberTracker[msg.sender] = block.number;\n    }\n\n    function tokenURI(uint256 tokenId) public view virtual override returns (string memory) {\n        _requireMinted(tokenId);\n\n        if (revelingBlock <= block.number) {\n            string memory baseURI = _baseURI();\n            return bytes(baseURI).length > 0 ? string(abi.encodePacked(baseURI, tokenId.toString(), \".json\")) : \"\";\n        }\n        return notReveledNFTURI;\n    }\n\n    function _baseURI() internal pure override returns (string memory) {\n        return \"ipfs://QmPD5AawNBDLVPMN7Aq4KfQiJXSZibx2RDLs1f4ZbcX1b8\";\n    }\n\n    function airdrop(address _to, uint _number) external onlyOwner() {\n        if (latestId + _number > limit) {\n            revert OutOfNFTs();\n        }\n\n        for (uint i; i < _number; ++i) {\n            _safeMint(_to, ++latestId);\n        }\n    }\n\n    function airdrops(address[] calldata _to) external onlyOwner() {\n        uint _size = _to.length;\n\n        if (latestId + _size > limit) {\n            revert OutOfNFTs();\n        }\n\n        for (uint i; i < _size; ++i) {\n            _safeMint(_to[i], ++latestId);\n        }\n    }\n\n    function setPrice(uint _price) external onlyOwner() {\n        price = _price;\n    }\n\n    function setInterval(uint _interval) external onlyOwner() {\n        interval = _interval;\n    }\n\n    function currentBalance() external view returns(uint) {\n        return address(this).balance;\n    }\n\n    function withdraw() external onlyOwner() {\n        (bool _result,) = address(msg.sender).call{value: address(this).balance}(\"\");\n        if (!_result) revert FailedToWithdraw();\n    }\n}",
  "sourcePath": "/Users/junsu/Developer/Projects/2023/capstone/mybling/mybling-contracts/contracts/MyblingNFT.sol",
  "compiler": {
    "name": "solc",
    "version": "0.8.19+commit.7dd6d404.Emscripten.clang"
  },
  "schemaVersion": "3.4.13",
  "updatedAt": "2023-04-20T10:28:56.349Z",
  "networkType": "ethereum",
  "devdoc": {
    "events": {
      "Approval(address,address,uint256)": {
        "details": "Emitted when `owner` enables `approved` to manage the `tokenId` token."
      },
      "ApprovalForAll(address,address,bool)": {
        "details": "Emitted when `owner` enables or disables (`approved`) `operator` to manage all of its assets."
      },
      "Transfer(address,address,uint256)": {
        "details": "Emitted when `tokenId` token is transferred from `from` to `to`."
      }
    },
    "kind": "dev",
    "methods": {
      "approve(address,uint256)": {
        "details": "See {IERC721-approve}."
      },
      "balanceOf(address)": {
        "details": "See {IERC721-balanceOf}."
      },
      "getApproved(uint256)": {
        "details": "See {IERC721-getApproved}."
      },
      "isApprovedForAll(address,address)": {
        "details": "See {IERC721-isApprovedForAll}."
      },
      "name()": {
        "details": "See {IERC721Metadata-name}."
      },
      "owner()": {
        "details": "Returns the address of the current owner."
      },
      "ownerOf(uint256)": {
        "details": "See {IERC721-ownerOf}."
      },
      "renounceOwnership()": {
        "details": "Leaves the contract without owner. It will not be possible to call `onlyOwner` functions anymore. Can only be called by the current owner. NOTE: Renouncing ownership will leave the contract without an owner, thereby removing any functionality that is only available to the owner."
      },
      "safeTransferFrom(address,address,uint256)": {
        "details": "See {IERC721-safeTransferFrom}."
      },
      "safeTransferFrom(address,address,uint256,bytes)": {
        "details": "See {IERC721-safeTransferFrom}."
      },
      "setApprovalForAll(address,bool)": {
        "details": "See {IERC721-setApprovalForAll}."
      },
      "supportsInterface(bytes4)": {
        "details": "See {IERC165-supportsInterface}."
      },
      "symbol()": {
        "details": "See {IERC721Metadata-symbol}."
      },
      "tokenByIndex(uint256)": {
        "details": "See {IERC721Enumerable-tokenByIndex}."
      },
      "tokenOfOwnerByIndex(address,uint256)": {
        "details": "See {IERC721Enumerable-tokenOfOwnerByIndex}."
      },
      "tokenURI(uint256)": {
        "details": "See {IERC721Metadata-tokenURI}."
      },
      "totalSupply()": {
        "details": "See {IERC721Enumerable-totalSupply}."
      },
      "transferFrom(address,address,uint256)": {
        "details": "See {IERC721-transferFrom}."
      },
      "transferOwnership(address)": {
        "details": "Transfers ownership of the contract to a new account (`newOwner`). Can only be called by the current owner."
      }
    },
    "version": 1
  },
  "userdoc": {
    "kind": "user",
    "methods": {},
    "version": 1
  }
}