{
  "contractName": "NFT",
  "abi": [
    {
      "inputs": [
        {
          "internalType": "address",
          "name": "_marketplaceAddress",
          "type": "address"
        }
      ],
      "stateMutability": "nonpayable",
      "type": "constructor"
    },
    {
      "anonymous": false,
      "inputs": [
        {
          "indexed": true,
          "internalType": "address",
          "name": "owner",
          "type": "address"
        },
        {
          "indexed": true,
          "internalType": "address",
          "name": "approved",
          "type": "address"
        },
        {
          "indexed": true,
          "internalType": "uint256",
          "name": "tokenId",
          "type": "uint256"
        }
      ],
      "name": "Approval",
      "type": "event"
    },
    {
      "anonymous": false,
      "inputs": [
        {
          "indexed": true,
          "internalType": "address",
          "name": "owner",
          "type": "address"
        },
        {
          "indexed": true,
          "internalType": "address",
          "name": "operator",
          "type": "address"
        },
        {
          "indexed": false,
          "internalType": "bool",
          "name": "approved",
          "type": "bool"
        }
      ],
      "name": "ApprovalForAll",
      "type": "event"
    },
    {
      "anonymous": false,
      "inputs": [
        {
          "indexed": true,
          "internalType": "uint256",
          "name": "tokenId",
          "type": "uint256"
        },
        {
          "indexed": false,
          "internalType": "string",
          "name": "tokenURI",
          "type": "string"
        },
        {
          "indexed": false,
          "internalType": "address",
          "name": "marketplaceAddress",
          "type": "address"
        }
      ],
      "name": "TokenMinted",
      "type": "event"
    },
    {
      "anonymous": false,
      "inputs": [
        {
          "indexed": true,
          "internalType": "address",
          "name": "from",
          "type": "address"
        },
        {
          "indexed": true,
          "internalType": "address",
          "name": "to",
          "type": "address"
        },
        {
          "indexed": true,
          "internalType": "uint256",
          "name": "tokenId",
          "type": "uint256"
        }
      ],
      "name": "Transfer",
      "type": "event"
    },
    {
      "inputs": [
        {
          "internalType": "address",
          "name": "to",
          "type": "address"
        },
        {
          "internalType": "uint256",
          "name": "tokenId",
          "type": "uint256"
        }
      ],
      "name": "approve",
      "outputs": [],
      "stateMutability": "nonpayable",
      "type": "function"
    },
    {
      "inputs": [
        {
          "internalType": "address",
          "name": "owner",
          "type": "address"
        }
      ],
      "name": "balanceOf",
      "outputs": [
        {
          "internalType": "uint256",
          "name": "",
          "type": "uint256"
        }
      ],
      "stateMutability": "view",
      "type": "function",
      "constant": true
    },
    {
      "inputs": [
        {
          "internalType": "uint256",
          "name": "tokenId",
          "type": "uint256"
        }
      ],
      "name": "getApproved",
      "outputs": [
        {
          "internalType": "address",
          "name": "",
          "type": "address"
        }
      ],
      "stateMutability": "view",
      "type": "function",
      "constant": true
    },
    {
      "inputs": [
        {
          "internalType": "address",
          "name": "owner",
          "type": "address"
        },
        {
          "internalType": "address",
          "name": "operator",
          "type": "address"
        }
      ],
      "name": "isApprovedForAll",
      "outputs": [
        {
          "internalType": "bool",
          "name": "",
          "type": "bool"
        }
      ],
      "stateMutability": "view",
      "type": "function",
      "constant": true
    },
    {
      "inputs": [],
      "name": "name",
      "outputs": [
        {
          "internalType": "string",
          "name": "",
          "type": "string"
        }
      ],
      "stateMutability": "view",
      "type": "function",
      "constant": true
    },
    {
      "inputs": [
        {
          "internalType": "uint256",
          "name": "tokenId",
          "type": "uint256"
        }
      ],
      "name": "ownerOf",
      "outputs": [
        {
          "internalType": "address",
          "name": "",
          "type": "address"
        }
      ],
      "stateMutability": "view",
      "type": "function",
      "constant": true
    },
    {
      "inputs": [
        {
          "internalType": "address",
          "name": "from",
          "type": "address"
        },
        {
          "internalType": "address",
          "name": "to",
          "type": "address"
        },
        {
          "internalType": "uint256",
          "name": "tokenId",
          "type": "uint256"
        }
      ],
      "name": "safeTransferFrom",
      "outputs": [],
      "stateMutability": "nonpayable",
      "type": "function"
    },
    {
      "inputs": [
        {
          "internalType": "address",
          "name": "from",
          "type": "address"
        },
        {
          "internalType": "address",
          "name": "to",
          "type": "address"
        },
        {
          "internalType": "uint256",
          "name": "tokenId",
          "type": "uint256"
        },
        {
          "internalType": "bytes",
          "name": "data",
          "type": "bytes"
        }
      ],
      "name": "safeTransferFrom",
      "outputs": [],
      "stateMutability": "nonpayable",
      "type": "function"
    },
    {
      "inputs": [
        {
          "internalType": "address",
          "name": "operator",
          "type": "address"
        },
        {
          "internalType": "bool",
          "name": "approved",
          "type": "bool"
        }
      ],
      "name": "setApprovalForAll",
      "outputs": [],
      "stateMutability": "nonpayable",
      "type": "function"
    },
    {
      "inputs": [
        {
          "internalType": "bytes4",
          "name": "interfaceId",
          "type": "bytes4"
        }
      ],
      "name": "supportsInterface",
      "outputs": [
        {
          "internalType": "bool",
          "name": "",
          "type": "bool"
        }
      ],
      "stateMutability": "view",
      "type": "function",
      "constant": true
    },
    {
      "inputs": [],
      "name": "symbol",
      "outputs": [
        {
          "internalType": "string",
          "name": "",
          "type": "string"
        }
      ],
      "stateMutability": "view",
      "type": "function",
      "constant": true
    },
    {
      "inputs": [
        {
          "internalType": "uint256",
          "name": "tokenId",
          "type": "uint256"
        }
      ],
      "name": "tokenURI",
      "outputs": [
        {
          "internalType": "string",
          "name": "",
          "type": "string"
        }
      ],
      "stateMutability": "view",
      "type": "function",
      "constant": true
    },
    {
      "inputs": [
        {
          "internalType": "address",
          "name": "from",
          "type": "address"
        },
        {
          "internalType": "address",
          "name": "to",
          "type": "address"
        },
        {
          "internalType": "uint256",
          "name": "tokenId",
          "type": "uint256"
        }
      ],
      "name": "transferFrom",
      "outputs": [],
      "stateMutability": "nonpayable",
      "type": "function"
    },
    {
      "inputs": [
        {
          "internalType": "string",
          "name": "tokenURI",
          "type": "string"
        }
      ],
      "name": "mintToken",
      "outputs": [
        {
          "internalType": "uint256",
          "name": "",
          "type": "uint256"
        }
      ],
      "stateMutability": "nonpayable",
      "type": "function"
    },
    {
      "inputs": [],
      "name": "getTokensOwnedByMe",
      "outputs": [
        {
          "internalType": "uint256[]",
          "name": "",
          "type": "uint256[]"
        }
      ],
      "stateMutability": "view",
      "type": "function",
      "constant": true
    },
    {
      "inputs": [
        {
          "internalType": "uint256",
          "name": "tokenId",
          "type": "uint256"
        }
      ],
      "name": "getTokenCreatorById",
      "outputs": [
        {
          "internalType": "address",
          "name": "",
          "type": "address"
        }
      ],
      "stateMutability": "view",
      "type": "function",
      "constant": true
    },
    {
      "inputs": [],
      "name": "getTokensCreatedByMe",
      "outputs": [
        {
          "internalType": "uint256[]",
          "name": "",
          "type": "uint256[]"
        }
      ],
      "stateMutability": "view",
      "type": "function",
      "constant": true
    }
  ],
  "bytecode": "0x60806040523480156200001157600080fd5b5060405162001e3338038062001e338339810160408190526200003491620000ea565b6040518060400160405280600781526020017f4d79626c696e67000000000000000000000000000000000000000000000000008152506040518060400160405280600481526020017f4d41524b000000000000000000000000000000000000000000000000000000008152508160009081620000b19190620001f3565b506001620000c08282620001f3565b505060088054600160a060020a031916600160a060020a03939093169290921790915550620002c6565b600060208284031215620000fd57600080fd5b8151600160a060020a03811681146200011557600080fd5b9392505050565b7f4e487b7100000000000000000000000000000000000000000000000000000000600052604160045260246000fd5b6002810460018216806200016057607f821691505b6020821081036200019a577f4e487b7100000000000000000000000000000000000000000000000000000000600052602260045260246000fd5b50919050565b601f821115620001ee576000818152602081206020601f86010481016020861015620001c95750805b6020601f860104820191505b81811015620001ea57828155600101620001d5565b5050505b505050565b815167ffffffffffffffff8111156200021057620002106200011c565b62000228816200022184546200014b565b84620001a0565b602080601f831160018114620002645760008415620002475750858301515b60028086026008870290910a6000190419821617865550620001ea565b600085815260208120601f198616915b82811015620002955788860151825594840194600190910190840162000274565b5085821015620002b657878501516008601f88160260020a60001904191681555b5050505050600202600101905550565b611b5d80620002d66000396000f3fe608060405234801561001057600080fd5b5060043610610128576000357c0100000000000000000000000000000000000000000000000000000000900480635ba37742116100bf57806395d89b411161008e57806395d89b411461025d578063a22cb46514610265578063b88d4fde14610278578063c87b56dd1461028b578063e985e9c51461029e57600080fd5b80635ba37742146102065780636352211e1461020e57806370a0823114610221578063867d33971461023457600080fd5b80630a989d9c116100fb5780630a989d9c146101aa57806323b872dd146101bf57806333eba49a146101d257806342842e0e146101f357600080fd5b806301ffc9a71461012d57806306fdde0314610155578063081812fc1461016a578063095ea7b314610195575b600080fd5b61014061013b366004611471565b6102b1565b60405190151581526020015b60405180910390f35b61015d61034e565b60405161014c91906114de565b61017d6101783660046114f1565b6103e0565b604051600160a060020a03909116815260200161014c565b6101a86101a3366004611526565b610407565b005b6101b2610543565b60405161014c9190611550565b6101a86101cd366004611594565b610628565b6101e56101e036600461165f565b61065c565b60405190815260200161014c565b6101a8610201366004611594565b61071e565b6101b2610739565b61017d61021c3660046114f1565b610870565b6101e561022f3660046116a8565b6108d8565b61017d6102423660046114f1565b600090815260096020526040902054600160a060020a031690565b61015d610975565b6101a86102733660046116c3565b610984565b6101a86102863660046116ff565b610993565b61015d6102993660046114f1565b6109ce565b6101406102ac36600461177b565b610ade565b6000600160e060020a031982167f80ac58cd0000000000000000000000000000000000000000000000000000000014806103145750600160e060020a031982167f5b5e139f00000000000000000000000000000000000000000000000000000000145b8061034857507f01ffc9a700000000000000000000000000000000000000000000000000000000600160e060020a03198316145b92915050565b60606000805461035d906117ae565b80601f0160208091040260200160405190810160405280929190818152602001828054610389906117ae565b80156103d65780601f106103ab576101008083540402835291602001916103d6565b820191906000526020600020905b8154815290600101906020018083116103b957829003601f168201915b5050505050905090565b60006103eb82610b0c565b50600090815260046020526040902054600160a060020a031690565b600061041282610870565b905080600160a060020a031683600160a060020a0316036104a35760405160e560020a62461bcd02815260206004820152602160248201527f4552433732313a20617070726f76616c20746f2063757272656e74206f776e6560448201527f720000000000000000000000000000000000000000000000000000000000000060648201526084015b60405180910390fd5b33600160a060020a03821614806104bf57506104bf8133610ade565b6105345760405160e560020a62461bcd02815260206004820152603d60248201527f4552433732313a20617070726f76652063616c6c6572206973206e6f7420746f60448201527f6b656e206f776e6572206f7220617070726f76656420666f7220616c6c000000606482015260840161049a565b61053e8383610b76565b505050565b6060600061055060075490565b9050600061055d336108d8565b905060008167ffffffffffffffff81111561057a5761057a6115d0565b6040519080825280602002602001820160405280156105a3578160200160208202803683370190505b5090506000805b8481101561061e5760006105bf826001611804565b9050336105cb82610870565b600160a060020a0316146105df575061060c565b808484815181106105f2576105f2611817565b6020908102919091010152610608600184611804565b9250505b8061061681611830565b9150506105aa565b5090949350505050565b6106323382610bf1565b6106515760405160e560020a62461bcd02815260040161049a90611849565b61053e838383610c4f565b600061066c600780546001019055565b600061067760075490565b90506106833382610de2565b6000818152600960205260409020805473ffffffffffffffffffffffffffffffffffffffff1916331790556106b88184610f83565b6008546106cf90600160a060020a03166001610984565b60085460405182917f9ef9d09a98563c827f651a028105395cc17f94ef23eb26b70d241439386a62f491610710918791600160a060020a03909116906118a6565b60405180910390a292915050565b61053e83838360405180602001604052806000815250610993565b6060600061074660075490565b90506000805b828110156107a9576000610761826001611804565b600081815260096020526040902054909150600160a060020a031633146107885750610797565b610793600184611804565b9250505b806107a181611830565b91505061074c565b5060008167ffffffffffffffff8111156107c5576107c56115d0565b6040519080825280602002602001820160405280156107ee578160200160208202803683370190505b5090506000805b8481101561061e57600061080a826001611804565b600081815260096020526040902054909150600160a060020a03163314610831575061085e565b8084848151811061084457610844611817565b602090810291909101015261085a600184611804565b9250505b8061086881611830565b9150506107f5565b600081815260026020526040812054600160a060020a0316806103485760405160e560020a62461bcd02815260206004820152601860248201527f4552433732313a20696e76616c696420746f6b656e2049440000000000000000604482015260640161049a565b6000600160a060020a0382166109595760405160e560020a62461bcd02815260206004820152602960248201527f4552433732313a2061646472657373207a65726f206973206e6f74206120766160448201527f6c6964206f776e65720000000000000000000000000000000000000000000000606482015260840161049a565b50600160a060020a031660009081526003602052604090205490565b60606001805461035d906117ae565b61098f338383611028565b5050565b61099d3383610bf1565b6109bc5760405160e560020a62461bcd02815260040161049a90611849565b6109c8848484846110f9565b50505050565b60606109d982610b0c565b600082815260066020526040812080546109f2906117ae565b80601f0160208091040260200160405190810160405280929190818152602001828054610a1e906117ae565b8015610a6b5780601f10610a4057610100808354040283529160200191610a6b565b820191906000526020600020905b815481529060010190602001808311610a4e57829003601f168201915b505050505090506000610a8960408051602081019091526000815290565b90508051600003610a9b575092915050565b815115610acd578082604051602001610ab59291906118d1565b60405160208183030381529060405292505050919050565b610ad68461112f565b949350505050565b600160a060020a03918216600090815260056020908152604080832093909416825291909152205460ff1690565b600081815260026020526040902054600160a060020a0316610b735760405160e560020a62461bcd02815260206004820152601860248201527f4552433732313a20696e76616c696420746f6b656e2049440000000000000000604482015260640161049a565b50565b6000818152600460205260409020805473ffffffffffffffffffffffffffffffffffffffff1916600160a060020a0384169081179091558190610bb882610870565b600160a060020a03167f8c5be1e5ebec7d5bd14f71427d1e84f3dd0314c0f7b2291e5b200ac8c7c3b92560405160405180910390a45050565b600080610bfd83610870565b905080600160a060020a031684600160a060020a03161480610c245750610c248185610ade565b80610ad6575083600160a060020a0316610c3d846103e0565b600160a060020a031614949350505050565b82600160a060020a0316610c6282610870565b600160a060020a031614610c8b5760405160e560020a62461bcd02815260040161049a90611900565b600160a060020a038216610d095760405160e560020a62461bcd028152602060048201526024808201527f4552433732313a207472616e7366657220746f20746865207a65726f2061646460448201527f7265737300000000000000000000000000000000000000000000000000000000606482015260840161049a565b82600160a060020a0316610d1c82610870565b600160a060020a031614610d455760405160e560020a62461bcd02815260040161049a90611900565b6000818152600460209081526040808320805473ffffffffffffffffffffffffffffffffffffffff19908116909155600160a060020a0387811680865260038552838620805460001901905590871680865283862080546001019055868652600290945282852080549092168417909155905184937fddf252ad1be2c89b69c2b068fc378daa952ba7f163c4a11628f55a4df523b3ef91a4505050565b600160a060020a038216610e3b5760405160e560020a62461bcd02815260206004820181905260248201527f4552433732313a206d696e7420746f20746865207a65726f2061646472657373604482015260640161049a565b600081815260026020526040902054600160a060020a031615610ea35760405160e560020a62461bcd02815260206004820152601c60248201527f4552433732313a20746f6b656e20616c7265616479206d696e74656400000000604482015260640161049a565b600081815260026020526040902054600160a060020a031615610f0b5760405160e560020a62461bcd02815260206004820152601c60248201527f4552433732313a20746f6b656e20616c7265616479206d696e74656400000000604482015260640161049a565b600160a060020a0382166000818152600360209081526040808320805460010190558483526002909152808220805473ffffffffffffffffffffffffffffffffffffffff19168417905551839291907fddf252ad1be2c89b69c2b068fc378daa952ba7f163c4a11628f55a4df523b3ef908290a45050565b600082815260026020526040902054600160a060020a03166110105760405160e560020a62461bcd02815260206004820152602e60248201527f45524337323155524953746f726167653a2055524920736574206f66206e6f6e60448201527f6578697374656e7420746f6b656e000000000000000000000000000000000000606482015260840161049a565b600082815260066020526040902061053e82826119ab565b81600160a060020a031683600160a060020a03160361108c5760405160e560020a62461bcd02815260206004820152601960248201527f4552433732313a20617070726f766520746f2063616c6c657200000000000000604482015260640161049a565b600160a060020a03838116600081815260056020908152604080832094871680845294825291829020805460ff191686151590811790915591519182527f17307eab39ab6107e8899845ad3d59bd9653f200f220920489ca2b5937696c31910160405180910390a3505050565b611104848484610c4f565b611110848484846111a3565b6109c85760405160e560020a62461bcd02815260040161049a90611a71565b606061113a82610b0c565b600061115160408051602081019091526000815290565b90506000815111611171576040518060200160405280600081525061119c565b8061117b846112d9565b60405160200161118c9291906118d1565b6040516020818303038152906040525b9392505050565b6000600160a060020a0384163b156112ce576040517f150b7a02000000000000000000000000000000000000000000000000000000008152600160a060020a0385169063150b7a0290611200903390899088908890600401611ace565b6020604051808303816000875af192505050801561123b575060408051601f3d908101601f1916820190925261123891810190611b0a565b60015b61129b573d808015611269576040519150601f19603f3d011682016040523d82523d6000602084013e61126e565b606091505b5080516000036112935760405160e560020a62461bcd02815260040161049a90611a71565b805181602001fd5b600160e060020a0319167f150b7a0200000000000000000000000000000000000000000000000000000000149050610ad6565b506001949350505050565b606060006112e683611379565b600101905060008167ffffffffffffffff811115611306576113066115d0565b6040519080825280601f01601f191660200182016040528015611330576020820181803683370190505b5090508181016020015b600019017f3031323334353637383961626364656600000000000000000000000000000000600a86061a8153600a850494508461133a57509392505050565b6000807a184f03e93ff9f4daa797ed6e38ed64bf6a1f01000000000000000083106113c2577a184f03e93ff9f4daa797ed6e38ed64bf6a1f010000000000000000830492506040015b6d04ee2d6d415b85acef810000000083106113ee576d04ee2d6d415b85acef8100000000830492506020015b662386f26fc10000831061140c57662386f26fc10000830492506010015b6305f5e1008310611424576305f5e100830492506008015b612710831061143857612710830492506004015b6064831061144a576064830492506002015b600a83106103485760010192915050565b600160e060020a031981168114610b7357600080fd5b60006020828403121561148357600080fd5b813561119c8161145b565b60005b838110156114a9578181015183820152602001611491565b50506000910152565b600081518084526114ca81602086016020860161148e565b601f01601f19169290920160200192915050565b60208152600061119c60208301846114b2565b60006020828403121561150357600080fd5b5035919050565b8035600160a060020a038116811461152157600080fd5b919050565b6000806040838503121561153957600080fd5b6115428361150a565b946020939093013593505050565b6020808252825182820181905260009190848201906040850190845b818110156115885783518352928401929184019160010161156c565b50909695505050505050565b6000806000606084860312156115a957600080fd5b6115b28461150a565b92506115c06020850161150a565b9150604084013590509250925092565b60e060020a634e487b7102600052604160045260246000fd5b600067ffffffffffffffff80841115611604576116046115d0565b604051601f8501601f19908116603f0116810190828211818310171561162c5761162c6115d0565b8160405280935085815286868601111561164557600080fd5b858560208301376000602087830101525050509392505050565b60006020828403121561167157600080fd5b813567ffffffffffffffff81111561168857600080fd5b8201601f8101841361169957600080fd5b610ad6848235602084016115e9565b6000602082840312156116ba57600080fd5b61119c8261150a565b600080604083850312156116d657600080fd5b6116df8361150a565b9150602083013580151581146116f457600080fd5b809150509250929050565b6000806000806080858703121561171557600080fd5b61171e8561150a565b935061172c6020860161150a565b925060408501359150606085013567ffffffffffffffff81111561174f57600080fd5b8501601f8101871361176057600080fd5b61176f878235602084016115e9565b91505092959194509250565b6000806040838503121561178e57600080fd5b6117978361150a565b91506117a56020840161150a565b90509250929050565b6002810460018216806117c257607f821691505b6020821081036117e55760e060020a634e487b7102600052602260045260246000fd5b50919050565b60e060020a634e487b7102600052601160045260246000fd5b80820180821115610348576103486117eb565b60e060020a634e487b7102600052603260045260246000fd5b600060018201611842576118426117eb565b5060010190565b6020808252602d908201527f4552433732313a2063616c6c6572206973206e6f7420746f6b656e206f776e6560408201527f72206f7220617070726f76656400000000000000000000000000000000000000606082015260800190565b6040815260006118b960408301856114b2565b9050600160a060020a03831660208301529392505050565b600083516118e381846020880161148e565b8351908301906118f781836020880161148e565b01949350505050565b60208082526025908201527f4552433732313a207472616e736665722066726f6d20696e636f72726563742060408201527f6f776e6572000000000000000000000000000000000000000000000000000000606082015260800190565b601f82111561053e576000818152602081206020601f860104810160208610156119845750805b6020601f860104820191505b818110156119a357828155600101611990565b505050505050565b815167ffffffffffffffff8111156119c5576119c56115d0565b6119d9816119d384546117ae565b8461195d565b602080601f831160018114611a1257600084156119f65750858301515b60028086026008870290910a60001904198216178655506119a3565b600085815260208120601f198616915b82811015611a4157888601518255948401946001909101908401611a22565b5085821015611a6157878501516008601f88160260020a60001904191681555b5050505050600202600101905550565b60208082526032908201527f4552433732313a207472616e7366657220746f206e6f6e20455243373231526560408201527f63656976657220696d706c656d656e7465720000000000000000000000000000606082015260800190565b6000600160a060020a03808716835280861660208401525083604083015260806060830152611b0060808301846114b2565b9695505050505050565b600060208284031215611b1c57600080fd5b815161119c8161145b56fea26469706673582212204116f3f3a5f80c4abc179054afbfe17fd248d69f93a9ed7c61b02146649a9ee264736f6c63430008130033",
  "immutableReferences": {},
  "source": "// SPDX-License-Identifier: MIT\npragma solidity ^0.8.4;\n\nimport \"@openzeppelin/contracts/token/ERC721/ERC721.sol\";\nimport \"@openzeppelin/contracts/token/ERC721/extensions/ERC721URIStorage.sol\";\nimport \"@openzeppelin/contracts/utils/Counters.sol\";\n\n// TO DO: Explain the reason/advantadge to use ERC721URIStorage instead of ERC721 itself\ncontract NFT is ERC721URIStorage {\n    using Counters for Counters.Counter;\n    Counters.Counter private _tokenIds;\n\n    address private marketplaceAddress;\n    mapping(uint256 => address) private _creators;\n\n    event TokenMinted(uint256 indexed tokenId, string tokenURI, address marketplaceAddress);\n\n    constructor(address _marketplaceAddress) ERC721(\"Mybling\", \"MARK\") {\n        marketplaceAddress = _marketplaceAddress;\n    }\n\n    function mintToken(string memory tokenURI) public returns (uint256) {\n        _tokenIds.increment();\n        uint256 newItemId = _tokenIds.current();\n        _mint(msg.sender, newItemId);\n        _creators[newItemId] = msg.sender;\n        _setTokenURI(newItemId, tokenURI);\n\n        // Give the marketplace approval to transact NFTs between users\n        setApprovalForAll(marketplaceAddress, true);\n\n        emit TokenMinted(newItemId, tokenURI, marketplaceAddress);\n        return newItemId;\n    }\n\n    function getTokensOwnedByMe() public view returns (uint256[] memory) {\n        uint256 numberOfExistingTokens = _tokenIds.current();\n        uint256 numberOfTokensOwned = balanceOf(msg.sender);\n        uint256[] memory ownedTokenIds = new uint256[](numberOfTokensOwned);\n\n        uint256 currentIndex = 0;\n        for (uint256 i = 0; i < numberOfExistingTokens; i++) {\n            uint256 tokenId = i + 1;\n            if (ownerOf(tokenId) != msg.sender) continue;\n            ownedTokenIds[currentIndex] = tokenId;\n            currentIndex += 1;\n        }\n\n        return ownedTokenIds;\n    }\n\n    function getTokenCreatorById(uint256 tokenId) public view returns (address) {\n        return _creators[tokenId];\n    }\n\n    function getTokensCreatedByMe() public view returns (uint256[] memory) {\n        uint256 numberOfExistingTokens = _tokenIds.current();\n        uint256 numberOfTokensCreated = 0;\n\n        for (uint256 i = 0; i < numberOfExistingTokens; i++) {\n            uint256 tokenId = i + 1;\n            if (_creators[tokenId] != msg.sender) continue;\n            numberOfTokensCreated += 1;\n        }\n\n        uint256[] memory createdTokenIds = new uint256[](numberOfTokensCreated);\n        uint256 currentIndex = 0;\n        for (uint256 i = 0; i < numberOfExistingTokens; i++) {\n            uint256 tokenId = i + 1;\n            if (_creators[tokenId] != msg.sender) continue;\n            createdTokenIds[currentIndex] = tokenId;\n            currentIndex += 1;\n        }\n\n        return createdTokenIds;\n    }\n}",
  "sourcePath": "/Users/junsu/Developer/Projects/2023/capstone/frontend/contracts/contracts/NFT.sol",
  "compiler": {
    "name": "solc",
    "version": "0.8.19+commit.7dd6d404.Emscripten.clang"
  },
  "schemaVersion": "3.4.13",
  "updatedAt": "2023-05-09T06:12:14.171Z",
  "networkType": "ethereum",
  "devdoc": {
    "events": {
      "Approval(address,address,uint256)": {
        "details": "Emitted when `owner` enables `approved` to manage the `tokenId` token."
      },
      "ApprovalForAll(address,address,bool)": {
        "details": "Emitted when `owner` enables or disables (`approved`) `operator` to manage all of its assets."
      },
      "Transfer(address,address,uint256)": {
        "details": "Emitted when `tokenId` token is transferred from `from` to `to`."
      }
    },
    "kind": "dev",
    "methods": {
      "approve(address,uint256)": {
        "details": "See {IERC721-approve}."
      },
      "balanceOf(address)": {
        "details": "See {IERC721-balanceOf}."
      },
      "getApproved(uint256)": {
        "details": "See {IERC721-getApproved}."
      },
      "isApprovedForAll(address,address)": {
        "details": "See {IERC721-isApprovedForAll}."
      },
      "name()": {
        "details": "See {IERC721Metadata-name}."
      },
      "ownerOf(uint256)": {
        "details": "See {IERC721-ownerOf}."
      },
      "safeTransferFrom(address,address,uint256)": {
        "details": "See {IERC721-safeTransferFrom}."
      },
      "safeTransferFrom(address,address,uint256,bytes)": {
        "details": "See {IERC721-safeTransferFrom}."
      },
      "setApprovalForAll(address,bool)": {
        "details": "See {IERC721-setApprovalForAll}."
      },
      "supportsInterface(bytes4)": {
        "details": "See {IERC165-supportsInterface}."
      },
      "symbol()": {
        "details": "See {IERC721Metadata-symbol}."
      },
      "tokenURI(uint256)": {
        "details": "See {IERC721Metadata-tokenURI}."
      },
      "transferFrom(address,address,uint256)": {
        "details": "See {IERC721-transferFrom}."
      }
    },
    "version": 1
  },
  "userdoc": {
    "kind": "user",
    "methods": {},
    "version": 1
  }
}